{
  "_format": "hh-sol-artifact-1",
  "contractName": "NFTFactory",
  "sourceName": "contracts/NFTFactory.sol",
  "abi": [
    {
      "inputs": [
        {
          "internalType": "address",
          "name": "oracleClientAddress",
          "type": "address"
        }
      ],
      "stateMutability": "nonpayable",
      "type": "constructor"
    },
    {
      "anonymous": false,
      "inputs": [
        {
          "indexed": true,
          "internalType": "address",
          "name": "owner",
          "type": "address"
        },
        {
          "indexed": true,
          "internalType": "address",
          "name": "approved",
          "type": "address"
        },
        {
          "indexed": true,
          "internalType": "uint256",
          "name": "tokenId",
          "type": "uint256"
        }
      ],
      "name": "Approval",
      "type": "event"
    },
    {
      "anonymous": false,
      "inputs": [
        {
          "indexed": true,
          "internalType": "address",
          "name": "owner",
          "type": "address"
        },
        {
          "indexed": true,
          "internalType": "address",
          "name": "operator",
          "type": "address"
        },
        {
          "indexed": false,
          "internalType": "bool",
          "name": "approved",
          "type": "bool"
        }
      ],
      "name": "ApprovalForAll",
      "type": "event"
    },
    {
      "anonymous": false,
      "inputs": [
        {
          "indexed": true,
          "internalType": "address",
          "name": "owner",
          "type": "address"
        },
        {
          "indexed": true,
          "internalType": "string",
          "name": "tokenKey",
          "type": "string"
        }
      ],
      "name": "Reveal",
      "type": "event"
    },
    {
      "anonymous": false,
      "inputs": [
        {
          "indexed": true,
          "internalType": "address",
          "name": "from",
          "type": "address"
        },
        {
          "indexed": true,
          "internalType": "address",
          "name": "to",
          "type": "address"
        },
        {
          "indexed": true,
          "internalType": "uint256",
          "name": "tokenId",
          "type": "uint256"
        }
      ],
      "name": "Transfer",
      "type": "event"
    },
    {
      "inputs": [
        {
          "internalType": "address",
          "name": "to",
          "type": "address"
        },
        {
          "internalType": "uint256",
          "name": "tokenId",
          "type": "uint256"
        }
      ],
      "name": "approve",
      "outputs": [],
      "stateMutability": "nonpayable",
      "type": "function"
    },
    {
      "inputs": [
        {
          "internalType": "address",
          "name": "owner",
          "type": "address"
        }
      ],
      "name": "balanceOf",
      "outputs": [
        {
          "internalType": "uint256",
          "name": "",
          "type": "uint256"
        }
      ],
      "stateMutability": "view",
      "type": "function"
    },
    {
      "inputs": [],
      "name": "baseURI",
      "outputs": [
        {
          "internalType": "string",
          "name": "",
          "type": "string"
        }
      ],
      "stateMutability": "view",
      "type": "function"
    },
    {
      "inputs": [
        {
          "internalType": "uint256",
          "name": "",
          "type": "uint256"
        }
      ],
      "name": "bioIndexes",
      "outputs": [
        {
          "internalType": "uint256",
          "name": "id",
          "type": "uint256"
        },
        {
          "internalType": "uint256",
          "name": "redeemablePrice",
          "type": "uint256"
        },
        {
          "internalType": "address",
          "name": "toBeOwner",
          "type": "address"
        },
        {
          "internalType": "bytes",
          "name": "hashedLocation",
          "type": "bytes"
        }
      ],
      "stateMutability": "view",
      "type": "function"
    },
    {
      "inputs": [
        {
          "internalType": "uint256",
          "name": "tokenId",
          "type": "uint256"
        }
      ],
      "name": "getApproved",
      "outputs": [
        {
          "internalType": "address",
          "name": "",
          "type": "address"
        }
      ],
      "stateMutability": "view",
      "type": "function"
    },
    {
      "inputs": [],
      "name": "getMultiplierEstimate",
      "outputs": [
        {
          "internalType": "uint256",
          "name": "",
          "type": "uint256"
        }
      ],
      "stateMutability": "view",
      "type": "function"
    },
    {
      "inputs": [
        {
          "internalType": "address",
          "name": "owner",
          "type": "address"
        },
        {
          "internalType": "address",
          "name": "operator",
          "type": "address"
        }
      ],
      "name": "isApprovedForAll",
      "outputs": [
        {
          "internalType": "bool",
          "name": "",
          "type": "bool"
        }
      ],
      "stateMutability": "view",
      "type": "function"
    },
    {
      "inputs": [
        {
          "internalType": "address",
          "name": "owner",
          "type": "address"
        },
        {
          "internalType": "uint256",
          "name": "depositAmount",
          "type": "uint256"
        },
        {
          "internalType": "uint256",
          "name": "weeksAfter",
          "type": "uint256"
        },
        {
          "internalType": "bytes",
          "name": "dataHash",
          "type": "bytes"
        },
        {
          "internalType": "string",
          "name": "tokenUri",
          "type": "string"
        }
      ],
      "name": "issueNFTCommitment",
      "outputs": [],
      "stateMutability": "nonpayable",
      "type": "function"
    },
    {
      "inputs": [
        {
          "internalType": "uint256",
          "name": "",
          "type": "uint256"
        }
      ],
      "name": "landIndexes",
      "outputs": [
        {
          "internalType": "uint256",
          "name": "id",
          "type": "uint256"
        },
        {
          "internalType": "uint256",
          "name": "price",
          "type": "uint256"
        },
        {
          "internalType": "bytes",
          "name": "agreement",
          "type": "bytes"
        },
        {
          "internalType": "uint256",
          "name": "period",
          "type": "uint256"
        }
      ],
      "stateMutability": "view",
      "type": "function"
    },
    {
      "inputs": [],
      "name": "name",
      "outputs": [
        {
          "internalType": "string",
          "name": "",
          "type": "string"
        }
      ],
      "stateMutability": "view",
      "type": "function"
    },
    {
      "inputs": [],
      "name": "oracleClient",
      "outputs": [
        {
          "internalType": "contract OracleClient",
          "name": "",
          "type": "address"
        }
      ],
      "stateMutability": "view",
      "type": "function"
    },
    {
      "inputs": [
        {
          "internalType": "uint256",
          "name": "tokenId",
          "type": "uint256"
        }
      ],
      "name": "ownerOf",
      "outputs": [
        {
          "internalType": "address",
          "name": "",
          "type": "address"
        }
      ],
      "stateMutability": "view",
      "type": "function"
    },
    {
      "inputs": [
        {
          "internalType": "uint256",
          "name": "tokenId",
          "type": "uint256"
        },
        {
          "internalType": "bytes",
          "name": "_dataKey",
          "type": "bytes"
        }
      ],
      "name": "redeem",
      "outputs": [],
      "stateMutability": "nonpayable",
      "type": "function"
    },
    {
      "inputs": [
        {
          "internalType": "address",
          "name": "owner",
          "type": "address"
        },
        {
          "internalType": "uint256",
          "name": "tokenId",
          "type": "uint256"
        },
        {
          "internalType": "string",
          "name": "tokenKey",
          "type": "string"
        },
        {
          "internalType": "bytes",
          "name": "_signature",
          "type": "bytes"
        },
        {
          "internalType": "address",
          "name": "buyer",
          "type": "address"
        }
      ],
      "name": "reveal",
      "outputs": [
        {
          "internalType": "address",
          "name": "",
          "type": "address"
        }
      ],
      "stateMutability": "view",
      "type": "function"
    },
    {
      "inputs": [
        {
          "internalType": "address",
          "name": "from",
          "type": "address"
        },
        {
          "internalType": "address",
          "name": "to",
          "type": "address"
        },
        {
          "internalType": "uint256",
          "name": "tokenId",
          "type": "uint256"
        }
      ],
      "name": "safeTransferFrom",
      "outputs": [],
      "stateMutability": "nonpayable",
      "type": "function"
    },
    {
      "inputs": [
        {
          "internalType": "address",
          "name": "from",
          "type": "address"
        },
        {
          "internalType": "address",
          "name": "to",
          "type": "address"
        },
        {
          "internalType": "uint256",
          "name": "tokenId",
          "type": "uint256"
        },
        {
          "internalType": "bytes",
          "name": "_data",
          "type": "bytes"
        }
      ],
      "name": "safeTransferFrom",
      "outputs": [],
      "stateMutability": "nonpayable",
      "type": "function"
    },
    {
      "inputs": [
        {
          "internalType": "address",
          "name": "operator",
          "type": "address"
        },
        {
          "internalType": "bool",
          "name": "approved",
          "type": "bool"
        }
      ],
      "name": "setApprovalForAll",
      "outputs": [],
      "stateMutability": "nonpayable",
      "type": "function"
    },
    {
      "inputs": [
        {
          "internalType": "bytes4",
          "name": "interfaceId",
          "type": "bytes4"
        }
      ],
      "name": "supportsInterface",
      "outputs": [
        {
          "internalType": "bool",
          "name": "",
          "type": "bool"
        }
      ],
      "stateMutability": "view",
      "type": "function"
    },
    {
      "inputs": [],
      "name": "symbol",
      "outputs": [
        {
          "internalType": "string",
          "name": "",
          "type": "string"
        }
      ],
      "stateMutability": "view",
      "type": "function"
    },
    {
      "inputs": [
        {
          "internalType": "uint256",
          "name": "index",
          "type": "uint256"
        }
      ],
      "name": "tokenByIndex",
      "outputs": [
        {
          "internalType": "uint256",
          "name": "",
          "type": "uint256"
        }
      ],
      "stateMutability": "view",
      "type": "function"
    },
    {
      "inputs": [
        {
          "internalType": "uint256",
          "name": "",
          "type": "uint256"
        }
      ],
      "name": "tokenHolderByIndex",
      "outputs": [
        {
          "internalType": "address",
          "name": "",
          "type": "address"
        }
      ],
      "stateMutability": "view",
      "type": "function"
    },
    {
      "inputs": [
        {
          "internalType": "address",
          "name": "owner",
          "type": "address"
        },
        {
          "internalType": "uint256",
          "name": "index",
          "type": "uint256"
        }
      ],
      "name": "tokenOfOwnerByIndex",
      "outputs": [
        {
          "internalType": "uint256",
          "name": "",
          "type": "uint256"
        }
      ],
      "stateMutability": "view",
      "type": "function"
    },
    {
      "inputs": [
        {
          "internalType": "uint256",
          "name": "tokenId",
          "type": "uint256"
        }
      ],
      "name": "tokenURI",
      "outputs": [
        {
          "internalType": "string",
          "name": "",
          "type": "string"
        }
      ],
      "stateMutability": "view",
      "type": "function"
    },
    {
      "inputs": [],
      "name": "totalSupply",
      "outputs": [
        {
          "internalType": "uint256",
          "name": "",
          "type": "uint256"
        }
      ],
      "stateMutability": "view",
      "type": "function"
    },
    {
      "inputs": [
        {
          "internalType": "address",
          "name": "from",
          "type": "address"
        },
        {
          "internalType": "address",
          "name": "to",
          "type": "address"
        },
        {
          "internalType": "uint256",
          "name": "tokenId",
          "type": "uint256"
        }
      ],
      "name": "transferFrom",
      "outputs": [],
      "stateMutability": "nonpayable",
      "type": "function"
    }
  ],
  "bytecode": "0x60806040523480156200001157600080fd5b506040516200436738038062004367833981810160405281019062000037919062000314565b6040518060400160405280600581526020017f476f7631300000000000000000000000000000000000000000000000000000008152506040518060400160405280600581526020017f474f563130000000000000000000000000000000000000000000000000000000815250620000bb6301ffc9a760e01b6200017f60201b60201c565b8160069080519060200190620000d392919062000257565b508060079080519060200190620000ec92919062000257565b50620001056380ac58cd60e01b6200017f60201b60201c565b6200011d635b5e139f60e01b6200017f60201b60201c565b6200013563780e9d6360e01b6200017f60201b60201c565b505080600d60006101000a81548173ffffffffffffffffffffffffffffffffffffffff021916908373ffffffffffffffffffffffffffffffffffffffff1602179055505062000403565b63ffffffff60e01b817bffffffffffffffffffffffffffffffffffffffffffffffffffffffff19161415620001eb576040517f08c379a0000000000000000000000000000000000000000000000000000000008152600401620001e29062000382565b60405180910390fd5b6001600080837bffffffffffffffffffffffffffffffffffffffffffffffffffffffff19167bffffffffffffffffffffffffffffffffffffffffffffffffffffffff1916815260200190815260200160002060006101000a81548160ff02191690831515021790555050565b828054600181600116156101000203166002900490600052602060002090601f016020900481019282601f106200029a57805160ff1916838001178555620002cb565b82800160010185558215620002cb579182015b82811115620002ca578251825591602001919060010190620002ad565b5b509050620002da9190620002de565b5090565b5b80821115620002f9576000816000905550600101620002df565b5090565b6000815190506200030e81620003e9565b92915050565b6000602082840312156200032757600080fd5b60006200033784828501620002fd565b91505092915050565b60006200034f601c83620003a4565b91507f4552433136353a20696e76616c696420696e74657266616365206964000000006000830152602082019050919050565b600060208201905081810360008301526200039d8162000340565b9050919050565b600082825260208201905092915050565b6000620003c282620003c9565b9050919050565b600073ffffffffffffffffffffffffffffffffffffffff82169050919050565b620003f481620003b5565b81146200040057600080fd5b50565b613f5480620004136000396000f3fe608060405234801561001057600080fd5b50600436106101735760003560e01c80636c0360eb116100de578063abf207d911610097578063d22fd77011610071578063d22fd7701461049e578063e20a398d146104ba578063e77c646d146104ea578063e985e9c51461050657610173565b8063abf207d91461041f578063b88d4fde14610452578063c87b56dd1461046e57610173565b80636c0360eb1461034657806370a0823114610364578063759986ff1461039457806377aab2d4146103c757806395d89b41146103e5578063a22cb4651461040357610173565b80632f52e5e3116101305780632f52e5e31461024c5780632f745c591461027c57806342842e0e146102ac5780634f6ccce7146102c85780635f2a3677146102f85780636352211e1461031657610173565b806301ffc9a71461017857806306fdde03146101a8578063081812fc146101c6578063095ea7b3146101f657806318160ddd1461021257806323b872dd14610230575b600080fd5b610192600480360381019061018d9190612c8a565b610536565b60405161019f9190613807565b60405180910390f35b6101b061059d565b6040516101bd9190613882565b60405180910390f35b6101e060048036038101906101db9190612cdc565b61063f565b6040516101ed91906137a0565b60405180910390f35b610210600480360381019061020b9190612b00565b6106c4565b005b61021a6107dc565b6040516102279190613b84565b60405180910390f35b61024a600480360381019061024591906129fa565b6107ed565b005b61026660048036038101906102619190612b3c565b61084d565b60405161027391906137a0565b60405180910390f35b61029660048036038101906102919190612b00565b61089d565b6040516102a39190613b84565b60405180910390f35b6102c660048036038101906102c191906129fa565b6108f8565b005b6102e260048036038101906102dd9190612cdc565b610918565b6040516102ef9190613b84565b60405180910390f35b61030061093b565b60405161030d9190613b84565b60405180910390f35b610330600480360381019061032b9190612cdc565b610944565b60405161033d91906137a0565b60405180910390f35b61034e61097b565b60405161035b9190613882565b60405180910390f35b61037e60048036038101906103799190612995565b610a1d565b60405161038b9190613b84565b60405180910390f35b6103ae60048036038101906103a99190612cdc565b610adc565b6040516103be9493929190613b9f565b60405180910390f35b6103cf610bc4565b6040516103dc9190613867565b60405180910390f35b6103ed610bea565b6040516103fa9190613882565b60405180910390f35b61041d60048036038101906104189190612ac4565b610c8c565b005b61043960048036038101906104349190612cdc565b610e0d565b6040516104499493929190613beb565b60405180910390f35b61046c60048036038101906104679190612a49565b610ed5565b005b61048860048036038101906104839190612cdc565b610f37565b6040516104959190613882565b60405180910390f35b6104b860048036038101906104b39190612be3565b6110ba565b005b6104d460048036038101906104cf9190612cdc565b6112ef565b6040516104e191906137a0565b60405180910390f35b61050460048036038101906104ff9190612d05565b611322565b005b610520600480360381019061051b91906129be565b611408565b60405161052d9190613807565b60405180910390f35b6000806000837bffffffffffffffffffffffffffffffffffffffffffffffffffffffff19167bffffffffffffffffffffffffffffffffffffffffffffffffffffffff1916815260200190815260200160002060009054906101000a900460ff169050919050565b606060068054600181600116156101000203166002900480601f0160208091040260200160405190810160405280929190818152602001828054600181600116156101000203166002900480156106355780601f1061060a57610100808354040283529160200191610635565b820191906000526020600020905b81548152906001019060200180831161061857829003601f168201915b5050505050905090565b600061064a8261149c565b610689576040517f08c379a000000000000000000000000000000000000000000000000000000000815260040161068090613aa4565b60405180910390fd5b6004600083815260200190815260200160002060009054906101000a900473ffffffffffffffffffffffffffffffffffffffff169050919050565b60006106cf82610944565b90508073ffffffffffffffffffffffffffffffffffffffff168373ffffffffffffffffffffffffffffffffffffffff161415610740576040517f08c379a000000000000000000000000000000000000000000000000000000000815260040161073790613b24565b60405180910390fd5b8073ffffffffffffffffffffffffffffffffffffffff1661075f6114b9565b73ffffffffffffffffffffffffffffffffffffffff16148061078e575061078d816107886114b9565b611408565b5b6107cd576040517f08c379a00000000000000000000000000000000000000000000000000000000081526004016107c490613a04565b60405180910390fd5b6107d783836114c1565b505050565b60006107e8600261157a565b905090565b6107fe6107f86114b9565b8261158f565b61083d576040517f08c379a000000000000000000000000000000000000000000000000000000000815260040161083490613b44565b60405180910390fd5b61084883838361166d565b505050565b600080866040516020016108619190613724565b604051602081830303815290604052805190602001209050600061088482611884565b905061089081866118b4565b9250505095945050505050565b60006108f082600160008673ffffffffffffffffffffffffffffffffffffffff1673ffffffffffffffffffffffffffffffffffffffff16815260200190815260200160002061192e90919063ffffffff16565b905092915050565b61091383838360405180602001604052806000815250610ed5565b505050565b60008061092f83600261194890919063ffffffff16565b50905080915050919050565b6000602a905090565b600061097482604051806060016040528060298152602001613ef66029913960026119749092919063ffffffff16565b9050919050565b606060098054600181600116156101000203166002900480601f016020809104026020016040519081016040528092919081815260200182805460018160011615610100020316600290048015610a135780601f106109e857610100808354040283529160200191610a13565b820191906000526020600020905b8154815290600101906020018083116109f657829003601f168201915b5050505050905090565b60008073ffffffffffffffffffffffffffffffffffffffff168273ffffffffffffffffffffffffffffffffffffffff161415610a8e576040517f08c379a0000000000000000000000000000000000000000000000000000000008152600401610a8590613a24565b60405180910390fd5b610ad5600160008473ffffffffffffffffffffffffffffffffffffffff1673ffffffffffffffffffffffffffffffffffffffff168152602001908152602001600020611993565b9050919050565b600b6020528060005260406000206000915090508060000154908060010154908060020160009054906101000a900473ffffffffffffffffffffffffffffffffffffffff1690806003018054600181600116156101000203166002900480601f016020809104026020016040519081016040528092919081815260200182805460018160011615610100020316600290048015610bba5780601f10610b8f57610100808354040283529160200191610bba565b820191906000526020600020905b815481529060010190602001808311610b9d57829003601f168201915b5050505050905084565b600d60009054906101000a900473ffffffffffffffffffffffffffffffffffffffff1681565b606060078054600181600116156101000203166002900480601f016020809104026020016040519081016040528092919081815260200182805460018160011615610100020316600290048015610c825780601f10610c5757610100808354040283529160200191610c82565b820191906000526020600020905b815481529060010190602001808311610c6557829003601f168201915b5050505050905090565b610c946114b9565b73ffffffffffffffffffffffffffffffffffffffff168273ffffffffffffffffffffffffffffffffffffffff161415610d02576040517f08c379a0000000000000000000000000000000000000000000000000000000008152600401610cf990613964565b60405180910390fd5b8060056000610d0f6114b9565b73ffffffffffffffffffffffffffffffffffffffff1673ffffffffffffffffffffffffffffffffffffffff16815260200190815260200160002060008473ffffffffffffffffffffffffffffffffffffffff1673ffffffffffffffffffffffffffffffffffffffff16815260200190815260200160002060006101000a81548160ff0219169083151502179055508173ffffffffffffffffffffffffffffffffffffffff16610dbc6114b9565b73ffffffffffffffffffffffffffffffffffffffff167f17307eab39ab6107e8899845ad3d59bd9653f200f220920489ca2b5937696c3183604051610e019190613807565b60405180910390a35050565b600a602052806000526040600020600091509050806000015490806001015490806002018054600181600116156101000203166002900480601f016020809104026020016040519081016040528092919081815260200182805460018160011615610100020316600290048015610ec55780601f10610e9a57610100808354040283529160200191610ec5565b820191906000526020600020905b815481529060010190602001808311610ea857829003601f168201915b5050505050908060030154905084565b610ee6610ee06114b9565b8361158f565b610f25576040517f08c379a0000000000000000000000000000000000000000000000000000000008152600401610f1c90613b44565b60405180910390fd5b610f31848484846119a8565b50505050565b6060610f428261149c565b610f81576040517f08c379a0000000000000000000000000000000000000000000000000000000008152600401610f7890613b04565b60405180910390fd5b6060600860008481526020019081526020016000208054600181600116156101000203166002900480601f01602080910402602001604051908101604052809291908181526020018280546001816001161561010002031660029004801561102a5780601f10610fff5761010080835404028352916020019161102a565b820191906000526020600020905b81548152906001019060200180831161100d57829003601f168201915b50505050509050606061103b61097b565b90506000815114156110515781925050506110b5565b60008251111561108657808260405160200161106e929190613756565b604051602081830303815290604052925050506110b5565b8061109085611a04565b6040516020016110a1929190613756565b604051602081830303815290604052925050505b919050565b60006110c46107dc565b9050600060018201905060008690506110db612701565b60405180608001604052808581526020018381526020018a73ffffffffffffffffffffffffffffffffffffffff16815260200187815250905080600b6000868152602001908152602001600020600082015181600001556020820151816001015560408201518160020160006101000a81548173ffffffffffffffffffffffffffffffffffffffff021916908373ffffffffffffffffffffffffffffffffffffffff160217905550606082015181600301908051906020019061119f92919061273f565b509050506111ab6127bf565b604051806080016040528086815260200184815260200188815260200189815250905080600a60008681526020019081526020016000206000820151816000015560208201518160010155604082015181600201908051906020019061121292919061273f565b506060820151816003015590505089600c600087815260200190815260200160002060006101000a81548173ffffffffffffffffffffffffffffffffffffffff021916908373ffffffffffffffffffffffffffffffffffffffff16021790555089600c600086815260200190815260200160002060006101000a81548173ffffffffffffffffffffffffffffffffffffffff021916908373ffffffffffffffffffffffffffffffffffffffff1602179055506112cf8a8689611b4b565b6112d98a85611ba6565b6112e38487611bc4565b50505050505050505050565b600c6020528060005260406000206000915054906101000a900473ffffffffffffffffffffffffffffffffffffffff1681565b3373ffffffffffffffffffffffffffffffffffffffff16600b600084815260200190815260200160002060020160009054906101000a900473ffffffffffffffffffffffffffffffffffffffff1673ffffffffffffffffffffffffffffffffffffffff16146113c6576040517f08c379a00000000000000000000000000000000000000000000000000000000081526004016113bd906139e4565b60405180910390fd5b611404600c600084815260200190815260200160002060009054906101000a900473ffffffffffffffffffffffffffffffffffffffff1633846107ed565b5050565b6000600560008473ffffffffffffffffffffffffffffffffffffffff1673ffffffffffffffffffffffffffffffffffffffff16815260200190815260200160002060008373ffffffffffffffffffffffffffffffffffffffff1673ffffffffffffffffffffffffffffffffffffffff16815260200190815260200160002060009054906101000a900460ff16905092915050565b60006114b2826002611c3890919063ffffffff16565b9050919050565b600033905090565b816004600083815260200190815260200160002060006101000a81548173ffffffffffffffffffffffffffffffffffffffff021916908373ffffffffffffffffffffffffffffffffffffffff160217905550808273ffffffffffffffffffffffffffffffffffffffff1661153483610944565b73ffffffffffffffffffffffffffffffffffffffff167f8c5be1e5ebec7d5bd14f71427d1e84f3dd0314c0f7b2291e5b200ac8c7c3b92560405160405180910390a45050565b600061158882600001611c52565b9050919050565b600061159a8261149c565b6115d9576040517f08c379a00000000000000000000000000000000000000000000000000000000081526004016115d0906139c4565b60405180910390fd5b60006115e483610944565b90508073ffffffffffffffffffffffffffffffffffffffff168473ffffffffffffffffffffffffffffffffffffffff16148061165357508373ffffffffffffffffffffffffffffffffffffffff1661163b8461063f565b73ffffffffffffffffffffffffffffffffffffffff16145b8061166457506116638185611408565b5b91505092915050565b8273ffffffffffffffffffffffffffffffffffffffff1661168d82610944565b73ffffffffffffffffffffffffffffffffffffffff16146116e3576040517f08c379a00000000000000000000000000000000000000000000000000000000081526004016116da90613ae4565b60405180910390fd5b600073ffffffffffffffffffffffffffffffffffffffff168273ffffffffffffffffffffffffffffffffffffffff161415611753576040517f08c379a000000000000000000000000000000000000000000000000000000000815260040161174a90613944565b60405180910390fd5b61175e838383611c63565b6117696000826114c1565b6117ba81600160008673ffffffffffffffffffffffffffffffffffffffff1673ffffffffffffffffffffffffffffffffffffffff168152602001908152602001600020611c6890919063ffffffff16565b5061180c81600160008573ffffffffffffffffffffffffffffffffffffffff1673ffffffffffffffffffffffffffffffffffffffff168152602001908152602001600020611c8290919063ffffffff16565b5061182381836002611c9c9092919063ffffffff16565b50808273ffffffffffffffffffffffffffffffffffffffff168473ffffffffffffffffffffffffffffffffffffffff167fddf252ad1be2c89b69c2b068fc378daa952ba7f163c4a11628f55a4df523b3ef60405160405180910390a4505050565b600081604051602001611897919061377a565b604051602081830303815290604052805190602001209050919050565b600060418251146118fa576040517f08c379a00000000000000000000000000000000000000000000000000000000081526004016118f1906138e4565b60405180910390fd5b60008060006020850151925060408501519150606085015160001a905061192386828585611cd1565b935050505092915050565b600061193d8360000183611e5c565b60001c905092915050565b60008060008061195b8660000186611ec9565b915091508160001c8160001c9350935050509250929050565b6000611987846000018460001b84611f4c565b60001c90509392505050565b60006119a182600001611fdd565b9050919050565b6119b384848461166d565b6119bf84848484611fee565b6119fe576040517f08c379a00000000000000000000000000000000000000000000000000000000081526004016119f590613904565b60405180910390fd5b50505050565b60606000821415611a4c576040518060400160405280600181526020017f30000000000000000000000000000000000000000000000000000000000000008152509050611b46565b600082905060005b60008214611a76578080600101915050600a8281611a6e57fe5b049150611a54565b60608167ffffffffffffffff81118015611a8f57600080fd5b506040519080825280601f01601f191660200182016040528015611ac25781602001600182028036833780820191505090505b50905060006001830390508593505b60008414611b3e57600a8481611ae357fe5b0660300160f81b82828060019003935081518110611afd57fe5b60200101907effffffffffffffffffffffffffffffffffffffffffffffffffffffffffffff1916908160001a905350600a8481611b3657fe5b049350611ad1565b819450505050505b919050565b611b558383612152565b611b626000848484611fee565b611ba1576040517f08c379a0000000000000000000000000000000000000000000000000000000008152600401611b9890613904565b60405180910390fd5b505050565b611bc0828260405180602001604052806000815250611b4b565b5050565b611bcd8261149c565b611c0c576040517f08c379a0000000000000000000000000000000000000000000000000000000008152600401611c0390613ac4565b60405180910390fd5b80600860008481526020019081526020016000209080519060200190611c339291906127e7565b505050565b6000611c4a836000018360001b6122e0565b905092915050565b600081600001805490509050919050565b505050565b6000611c7a836000018360001b612303565b905092915050565b6000611c94836000018360001b6123eb565b905092915050565b6000611cc8846000018460001b8473ffffffffffffffffffffffffffffffffffffffff1660001b61245b565b90509392505050565b60007f7fffffffffffffffffffffffffffffff5d576e7357a4501ddfe92f46681b20a08260001c1115611d39576040517f08c379a0000000000000000000000000000000000000000000000000000000008152600401611d3090613984565b60405180910390fd5b601b8460ff161480611d4e5750601c8460ff16145b611d8d576040517f08c379a0000000000000000000000000000000000000000000000000000000008152600401611d8490613a44565b60405180910390fd5b600060018686868660405160008152602001604052604051611db29493929190613822565b6020604051602081039080840390855afa158015611dd4573d6000803e3d6000fd5b505050602060405103519050600073ffffffffffffffffffffffffffffffffffffffff168173ffffffffffffffffffffffffffffffffffffffff161415611e50576040517f08c379a0000000000000000000000000000000000000000000000000000000008152600401611e47906138a4565b60405180910390fd5b80915050949350505050565b600081836000018054905011611ea7576040517f08c379a0000000000000000000000000000000000000000000000000000000008152600401611e9e906138c4565b60405180910390fd5b826000018281548110611eb657fe5b9060005260206000200154905092915050565b60008082846000018054905011611f15576040517f08c379a0000000000000000000000000000000000000000000000000000000008152600401611f0c90613a64565b60405180910390fd5b6000846000018481548110611f2657fe5b906000526020600020906002020190508060000154816001015492509250509250929050565b60008084600101600085815260200190815260200160002054905060008114158390611fae576040517f08c379a0000000000000000000000000000000000000000000000000000000008152600401611fa59190613882565b60405180910390fd5b50846000016001820381548110611fc157fe5b9060005260206000209060020201600101549150509392505050565b600081600001805490509050919050565b600061200f8473ffffffffffffffffffffffffffffffffffffffff16612537565b61201c576001905061214a565b60606120e363150b7a0260e01b6120316114b9565b88878760405160240161204794939291906137bb565b604051602081830303815290604052907bffffffffffffffffffffffffffffffffffffffffffffffffffffffff19166020820180517bffffffffffffffffffffffffffffffffffffffffffffffffffffffff8381831617835250505050604051806060016040528060328152602001613ec4603291398773ffffffffffffffffffffffffffffffffffffffff1661254a9092919063ffffffff16565b90506000818060200190518101906120fb9190612cb3565b905063150b7a0260e01b7bffffffffffffffffffffffffffffffffffffffffffffffffffffffff1916817bffffffffffffffffffffffffffffffffffffffffffffffffffffffff191614925050505b949350505050565b600073ffffffffffffffffffffffffffffffffffffffff168273ffffffffffffffffffffffffffffffffffffffff1614156121c2576040517f08c379a00000000000000000000000000000000000000000000000000000000081526004016121b990613a84565b60405180910390fd5b6121cb8161149c565b1561220b576040517f08c379a000000000000000000000000000000000000000000000000000000000815260040161220290613924565b60405180910390fd5b61221760008383611c63565b61226881600160008573ffffffffffffffffffffffffffffffffffffffff1673ffffffffffffffffffffffffffffffffffffffff168152602001908152602001600020611c8290919063ffffffff16565b5061227f81836002611c9c9092919063ffffffff16565b50808273ffffffffffffffffffffffffffffffffffffffff16600073ffffffffffffffffffffffffffffffffffffffff167fddf252ad1be2c89b69c2b068fc378daa952ba7f163c4a11628f55a4df523b3ef60405160405180910390a45050565b600080836001016000848152602001908152602001600020541415905092915050565b600080836001016000848152602001908152602001600020549050600081146123df576000600182039050600060018660000180549050039050600086600001828154811061234e57fe5b906000526020600020015490508087600001848154811061236b57fe5b90600052602060002001819055506001830187600101600083815260200190815260200160002081905550866000018054806123a357fe5b600190038181906000526020600020016000905590558660010160008781526020019081526020016000206000905560019450505050506123e5565b60009150505b92915050565b60006123f78383612562565b612450578260000182908060018154018082558091505060019003906000526020600020016000909190919091505582600001805490508360010160008481526020019081526020016000208190555060019050612455565b600090505b92915050565b600080846001016000858152602001908152602001600020549050600081141561250257846000016040518060400160405280868152602001858152509080600181540180825580915050600190039060005260206000209060020201600090919091909150600082015181600001556020820151816001015550508460000180549050856001016000868152602001908152602001600020819055506001915050612530565b8285600001600183038154811061251557fe5b90600052602060002090600202016001018190555060009150505b9392505050565b600080823b905060008111915050919050565b60606125598484600085612585565b90509392505050565b600080836001016000848152602001908152602001600020541415905092915050565b6060824710156125ca576040517f08c379a00000000000000000000000000000000000000000000000000000000081526004016125c1906139a4565b60405180910390fd5b6125d385612537565b612612576040517f08c379a000000000000000000000000000000000000000000000000000000000815260040161260990613b64565b60405180910390fd5b600060608673ffffffffffffffffffffffffffffffffffffffff16858760405161263c919061373f565b60006040518083038185875af1925050503d8060008114612679576040519150601f19603f3d011682016040523d82523d6000602084013e61267e565b606091505b509150915061268e82828661269a565b92505050949350505050565b606083156126aa578290506126fa565b6000835111156126bd5782518084602001fd5b816040517f08c379a00000000000000000000000000000000000000000000000000000000081526004016126f19190613882565b60405180910390fd5b9392505050565b60405180608001604052806000815260200160008152602001600073ffffffffffffffffffffffffffffffffffffffff168152602001606081525090565b828054600181600116156101000203166002900490600052602060002090601f016020900481019282601f1061278057805160ff19168380011785556127ae565b828001600101855582156127ae579182015b828111156127ad578251825591602001919060010190612792565b5b5090506127bb9190612867565b5090565b6040518060800160405280600081526020016000815260200160608152602001600081525090565b828054600181600116156101000203166002900490600052602060002090601f016020900481019282601f1061282857805160ff1916838001178555612856565b82800160010185558215612856579182015b8281111561285557825182559160200191906001019061283a565b5b5090506128639190612867565b5090565b5b80821115612880576000816000905550600101612868565b5090565b60008135905061289381613e67565b92915050565b6000813590506128a881613e7e565b92915050565b6000813590506128bd81613e95565b92915050565b6000815190506128d281613e95565b92915050565b600082601f8301126128e957600080fd5b81356128fc6128f782613c68565b613c37565b9150808252602083016020830185838301111561291857600080fd5b612923838284613dd7565b50505092915050565b600082601f83011261293d57600080fd5b813561295061294b82613c98565b613c37565b9150808252602083016020830185838301111561296c57600080fd5b612977838284613dd7565b50505092915050565b60008135905061298f81613eac565b92915050565b6000602082840312156129a757600080fd5b60006129b584828501612884565b91505092915050565b600080604083850312156129d157600080fd5b60006129df85828601612884565b92505060206129f085828601612884565b9150509250929050565b600080600060608486031215612a0f57600080fd5b6000612a1d86828701612884565b9350506020612a2e86828701612884565b9250506040612a3f86828701612980565b9150509250925092565b60008060008060808587031215612a5f57600080fd5b6000612a6d87828801612884565b9450506020612a7e87828801612884565b9350506040612a8f87828801612980565b925050606085013567ffffffffffffffff811115612aac57600080fd5b612ab8878288016128d8565b91505092959194509250565b60008060408385031215612ad757600080fd5b6000612ae585828601612884565b9250506020612af685828601612899565b9150509250929050565b60008060408385031215612b1357600080fd5b6000612b2185828601612884565b9250506020612b3285828601612980565b9150509250929050565b600080600080600060a08688031215612b5457600080fd5b6000612b6288828901612884565b9550506020612b7388828901612980565b945050604086013567ffffffffffffffff811115612b9057600080fd5b612b9c8882890161292c565b935050606086013567ffffffffffffffff811115612bb957600080fd5b612bc5888289016128d8565b9250506080612bd688828901612884565b9150509295509295909350565b600080600080600060a08688031215612bfb57600080fd5b6000612c0988828901612884565b9550506020612c1a88828901612980565b9450506040612c2b88828901612980565b935050606086013567ffffffffffffffff811115612c4857600080fd5b612c54888289016128d8565b925050608086013567ffffffffffffffff811115612c7157600080fd5b612c7d8882890161292c565b9150509295509295909350565b600060208284031215612c9c57600080fd5b6000612caa848285016128ae565b91505092915050565b600060208284031215612cc557600080fd5b6000612cd3848285016128c3565b91505092915050565b600060208284031215612cee57600080fd5b6000612cfc84828501612980565b91505092915050565b60008060408385031215612d1857600080fd5b6000612d2685828601612980565b925050602083013567ffffffffffffffff811115612d4357600080fd5b612d4f858286016128d8565b9150509250929050565b612d6281613d28565b82525050565b612d7181613d16565b82525050565b612d88612d8382613d16565b613e19565b82525050565b612d9781613d3a565b82525050565b612da681613d46565b82525050565b612dbd612db882613d46565b613e2b565b82525050565b6000612dce82613cc8565b612dd88185613cde565b9350612de8818560208601613de6565b612df181613e49565b840191505092915050565b6000612e0782613cc8565b612e118185613cef565b9350612e21818560208601613de6565b80840191505092915050565b612e3681613db3565b82525050565b6000612e4782613cd3565b612e518185613cfa565b9350612e61818560208601613de6565b612e6a81613e49565b840191505092915050565b6000612e8082613cd3565b612e8a8185613d0b565b9350612e9a818560208601613de6565b80840191505092915050565b6000612eb3601883613cfa565b91507f45434453413a20696e76616c6964207369676e617475726500000000000000006000830152602082019050919050565b6000612ef3602283613cfa565b91507f456e756d657261626c655365743a20696e646578206f7574206f6620626f756e60008301527f64730000000000000000000000000000000000000000000000000000000000006020830152604082019050919050565b6000612f59601f83613cfa565b91507f45434453413a20696e76616c6964207369676e6174757265206c656e677468006000830152602082019050919050565b6000612f99601c83613d0b565b91507f19457468657265756d205369676e6564204d6573736167653a0a3332000000006000830152601c82019050919050565b6000612fd9603283613cfa565b91507f4552433732313a207472616e7366657220746f206e6f6e20455243373231526560008301527f63656976657220696d706c656d656e74657200000000000000000000000000006020830152604082019050919050565b600061303f601c83613cfa565b91507f4552433732313a20746f6b656e20616c7265616479206d696e746564000000006000830152602082019050919050565b600061307f602483613cfa565b91507f4552433732313a207472616e7366657220746f20746865207a65726f2061646460008301527f72657373000000000000000000000000000000000000000000000000000000006020830152604082019050919050565b60006130e5601983613cfa565b91507f4552433732313a20617070726f766520746f2063616c6c6572000000000000006000830152602082019050919050565b6000613125602283613cfa565b91507f45434453413a20696e76616c6964207369676e6174757265202773272076616c60008301527f75650000000000000000000000000000000000000000000000000000000000006020830152604082019050919050565b600061318b602683613cfa565b91507f416464726573733a20696e73756666696369656e742062616c616e636520666f60008301527f722063616c6c00000000000000000000000000000000000000000000000000006020830152604082019050919050565b60006131f1602c83613cfa565b91507f4552433732313a206f70657261746f7220717565727920666f72206e6f6e657860008301527f697374656e7420746f6b656e00000000000000000000000000000000000000006020830152604082019050919050565b6000613257601f83613cfa565b91507f6d73672e73656e646572206d757374206d6174636820746f42654f776e6572006000830152602082019050919050565b6000613297603883613cfa565b91507f4552433732313a20617070726f76652063616c6c6572206973206e6f74206f7760008301527f6e6572206e6f7220617070726f76656420666f7220616c6c00000000000000006020830152604082019050919050565b60006132fd602a83613cfa565b91507f4552433732313a2062616c616e636520717565727920666f7220746865207a6560008301527f726f2061646472657373000000000000000000000000000000000000000000006020830152604082019050919050565b6000613363602283613cfa565b91507f45434453413a20696e76616c6964207369676e6174757265202776272076616c60008301527f75650000000000000000000000000000000000000000000000000000000000006020830152604082019050919050565b60006133c9602283613cfa565b91507f456e756d657261626c654d61703a20696e646578206f7574206f6620626f756e60008301527f64730000000000000000000000000000000000000000000000000000000000006020830152604082019050919050565b600061342f602083613cfa565b91507f4552433732313a206d696e7420746f20746865207a65726f20616464726573736000830152602082019050919050565b600061346f602c83613cfa565b91507f4552433732313a20617070726f76656420717565727920666f72206e6f6e657860008301527f697374656e7420746f6b656e00000000000000000000000000000000000000006020830152604082019050919050565b60006134d5602c83613cfa565b91507f4552433732314d657461646174613a2055524920736574206f66206e6f6e657860008301527f697374656e7420746f6b656e00000000000000000000000000000000000000006020830152604082019050919050565b600061353b602983613cfa565b91507f4552433732313a207472616e73666572206f6620746f6b656e2074686174206960008301527f73206e6f74206f776e00000000000000000000000000000000000000000000006020830152604082019050919050565b60006135a1602f83613cfa565b91507f4552433732314d657461646174613a2055524920717565727920666f72206e6f60008301527f6e6578697374656e7420746f6b656e00000000000000000000000000000000006020830152604082019050919050565b6000613607602183613cfa565b91507f4552433732313a20617070726f76616c20746f2063757272656e74206f776e6560008301527f72000000000000000000000000000000000000000000000000000000000000006020830152604082019050919050565b600061366d603183613cfa565b91507f4552433732313a207472616e736665722063616c6c6572206973206e6f74206f60008301527f776e6572206e6f7220617070726f7665640000000000000000000000000000006020830152604082019050919050565b60006136d3601d83613cfa565b91507f416464726573733a2063616c6c20746f206e6f6e2d636f6e74726163740000006000830152602082019050919050565b61370f81613d9c565b82525050565b61371e81613da6565b82525050565b60006137308284612d77565b60148201915081905092915050565b600061374b8284612dfc565b915081905092915050565b60006137628285612e75565b915061376e8284612e75565b91508190509392505050565b600061378582612f8c565b91506137918284612dac565b60208201915081905092915050565b60006020820190506137b56000830184612d68565b92915050565b60006080820190506137d06000830187612d59565b6137dd6020830186612d68565b6137ea6040830185613706565b81810360608301526137fc8184612dc3565b905095945050505050565b600060208201905061381c6000830184612d8e565b92915050565b60006080820190506138376000830187612d9d565b6138446020830186613715565b6138516040830185612d9d565b61385e6060830184612d9d565b95945050505050565b600060208201905061387c6000830184612e2d565b92915050565b6000602082019050818103600083015261389c8184612e3c565b905092915050565b600060208201905081810360008301526138bd81612ea6565b9050919050565b600060208201905081810360008301526138dd81612ee6565b9050919050565b600060208201905081810360008301526138fd81612f4c565b9050919050565b6000602082019050818103600083015261391d81612fcc565b9050919050565b6000602082019050818103600083015261393d81613032565b9050919050565b6000602082019050818103600083015261395d81613072565b9050919050565b6000602082019050818103600083015261397d816130d8565b9050919050565b6000602082019050818103600083015261399d81613118565b9050919050565b600060208201905081810360008301526139bd8161317e565b9050919050565b600060208201905081810360008301526139dd816131e4565b9050919050565b600060208201905081810360008301526139fd8161324a565b9050919050565b60006020820190508181036000830152613a1d8161328a565b9050919050565b60006020820190508181036000830152613a3d816132f0565b9050919050565b60006020820190508181036000830152613a5d81613356565b9050919050565b60006020820190508181036000830152613a7d816133bc565b9050919050565b60006020820190508181036000830152613a9d81613422565b9050919050565b60006020820190508181036000830152613abd81613462565b9050919050565b60006020820190508181036000830152613add816134c8565b9050919050565b60006020820190508181036000830152613afd8161352e565b9050919050565b60006020820190508181036000830152613b1d81613594565b9050919050565b60006020820190508181036000830152613b3d816135fa565b9050919050565b60006020820190508181036000830152613b5d81613660565b9050919050565b60006020820190508181036000830152613b7d816136c6565b9050919050565b6000602082019050613b996000830184613706565b92915050565b6000608082019050613bb46000830187613706565b613bc16020830186613706565b613bce6040830185612d68565b8181036060830152613be08184612dc3565b905095945050505050565b6000608082019050613c006000830187613706565b613c0d6020830186613706565b8181036040830152613c1f8185612dc3565b9050613c2e6060830184613706565b95945050505050565b6000604051905081810181811067ffffffffffffffff82111715613c5e57613c5d613e47565b5b8060405250919050565b600067ffffffffffffffff821115613c8357613c82613e47565b5b601f19601f8301169050602081019050919050565b600067ffffffffffffffff821115613cb357613cb2613e47565b5b601f19601f8301169050602081019050919050565b600081519050919050565b600081519050919050565b600082825260208201905092915050565b600081905092915050565b600082825260208201905092915050565b600081905092915050565b6000613d2182613d7c565b9050919050565b6000613d3382613d7c565b9050919050565b60008115159050919050565b6000819050919050565b60007fffffffff0000000000000000000000000000000000000000000000000000000082169050919050565b600073ffffffffffffffffffffffffffffffffffffffff82169050919050565b6000819050919050565b600060ff82169050919050565b6000613dbe82613dc5565b9050919050565b6000613dd082613d7c565b9050919050565b82818337600083830152505050565b60005b83811015613e04578082015181840152602081019050613de9565b83811115613e13576000848401525b50505050565b6000613e2482613e35565b9050919050565b6000819050919050565b6000613e4082613e5a565b9050919050565bfe5b6000601f19601f8301169050919050565b60008160601b9050919050565b613e7081613d16565b8114613e7b57600080fd5b50565b613e8781613d3a565b8114613e9257600080fd5b50565b613e9e81613d50565b8114613ea957600080fd5b50565b613eb581613d9c565b8114613ec057600080fd5b5056fe4552433732313a207472616e7366657220746f206e6f6e20455243373231526563656976657220696d706c656d656e7465724552433732313a206f776e657220717565727920666f72206e6f6e6578697374656e7420746f6b656ea26469706673582212205eae1da62b794862ca781215255cb4dafda73967fd2eef0531608829b6ec378b64736f6c63430007030033",
  "linkReferences": {},
  "deployedLinkReferences": {}
}