{
  "_format": "hh-sol-artifact-1",
  "contractName": "DAIFaucet",
  "sourceName": "contracts/DAIFaucet.sol",
  "abi": [
    {
      "inputs": [
        {
          "internalType": "address",
          "name": "_uniswapV2RouterAddress",
          "type": "address"
        },
        {
          "internalType": "address",
          "name": "_daiAddress",
          "type": "address"
        }
      ],
      "stateMutability": "nonpayable",
      "type": "constructor"
    },
    {
      "stateMutability": "payable",
      "type": "fallback"
    },
    {
      "inputs": [],
      "name": "daiAddress",
      "outputs": [
        {
          "internalType": "address",
          "name": "",
          "type": "address"
        }
      ],
      "stateMutability": "view",
      "type": "function"
    },
    {
      "inputs": [],
      "name": "uniswapRouter",
      "outputs": [
        {
          "internalType": "contract IUniswapV2Router02",
          "name": "",
          "type": "address"
        }
      ],
      "stateMutability": "view",
      "type": "function"
    },
    {
      "inputs": [],
      "name": "uniswapV2RouterAddress",
      "outputs": [
        {
          "internalType": "address",
          "name": "",
          "type": "address"
        }
      ],
      "stateMutability": "view",
      "type": "function"
    }
  ],
  "bytecode": "0x608060405234801561001057600080fd5b506040516106b13803806106b18339818101604052604081101561003357600080fd5b810190808051906020019092919080519060200190929190505050816000806101000a81548173ffffffffffffffffffffffffffffffffffffffff021916908373ffffffffffffffffffffffffffffffffffffffff16021790555080600160006101000a81548173ffffffffffffffffffffffffffffffffffffffff021916908373ffffffffffffffffffffffffffffffffffffffff16021790555081600260006101000a81548173ffffffffffffffffffffffffffffffffffffffff021916908373ffffffffffffffffffffffffffffffffffffffff1602179055505050610590806101216000396000f3fe6080604052600436106100385760003560e01c80632c387275146100435780634a377e1d14610084578063735de9f7146100c557610039565b5b610041610106565b005b34801561004f57600080fd5b506100586104ea565b604051808273ffffffffffffffffffffffffffffffffffffffff16815260200191505060405180910390f35b34801561009057600080fd5b50610099610510565b604051808273ffffffffffffffffffffffffffffffffffffffff16815260200191505060405180910390f35b3480156100d157600080fd5b506100da610534565b604051808273ffffffffffffffffffffffffffffffffffffffff16815260200191505060405180910390f35b600080420190506060600267ffffffffffffffff8111801561012757600080fd5b506040519080825280602002602001820160405280156101565781602001602082028036833780820191505090505b509050600260009054906101000a900473ffffffffffffffffffffffffffffffffffffffff1673ffffffffffffffffffffffffffffffffffffffff1663ad5c46486040518163ffffffff1660e01b815260040160206040518083038186803b1580156101c157600080fd5b505afa1580156101d5573d6000803e3d6000fd5b505050506040513d60208110156101eb57600080fd5b81019080805190602001909291905050508160008151811061020957fe5b602002602001019073ffffffffffffffffffffffffffffffffffffffff16908173ffffffffffffffffffffffffffffffffffffffff1681525050600160009054906101000a900473ffffffffffffffffffffffffffffffffffffffff168160018151811061027357fe5b602002602001019073ffffffffffffffffffffffffffffffffffffffff16908173ffffffffffffffffffffffffffffffffffffffff1681525050600260009054906101000a900473ffffffffffffffffffffffffffffffffffffffff1673ffffffffffffffffffffffffffffffffffffffff16637ff36ab53460008433876040518663ffffffff1660e01b815260040180858152602001806020018473ffffffffffffffffffffffffffffffffffffffff168152602001838152602001828103825285818151815260200191508051906020019060200280838360005b8381101561036b578082015181840152602081019050610350565b50505050905001955050505050506000604051808303818588803b15801561039257600080fd5b505af11580156103a6573d6000803e3d6000fd5b50505050506040513d6000823e3d601f19601f8201168201806040525060208110156103d157600080fd5b81019080805160405193929190846401000000008211156103f157600080fd5b8382019150602082018581111561040757600080fd5b825186602082028301116401000000008211171561042457600080fd5b8083526020830192505050908051906020019060200280838360005b8381101561045b578082015181840152602081019050610440565b50505050905001604052505050503373ffffffffffffffffffffffffffffffffffffffff163373ffffffffffffffffffffffffffffffffffffffff163160405180600001905060006040518083038185875af1925050503d80600081146104de576040519150601f19603f3d011682016040523d82523d6000602084013e6104e3565b606091505b5050505050565b600160009054906101000a900473ffffffffffffffffffffffffffffffffffffffff1681565b60008054906101000a900473ffffffffffffffffffffffffffffffffffffffff1681565b600260009054906101000a900473ffffffffffffffffffffffffffffffffffffffff168156fea26469706673582212206b853d85e1c7517620ebf40f27c7c0cecdd867ece77e04c6e8f5030a3b0dbcf364736f6c63430007030033",
  "linkReferences": {},
  "deployedLinkReferences": {}
}