{
  "_format": "hh-sol-artifact-1",
  "contractName": "CreditExecutor",
  "sourceName": "contracts/CreditExecutor.sol",
  "abi": [
    {
      "inputs": [
        {
          "internalType": "address",
          "name": "nftFactoryAddress",
          "type": "address"
        }
      ],
      "stateMutability": "nonpayable",
      "type": "constructor"
    },
    {
      "inputs": [
        {
          "internalType": "address",
          "name": "",
          "type": "address"
        }
      ],
      "name": "aBalances",
      "outputs": [
        {
          "internalType": "uint256",
          "name": "",
          "type": "uint256"
        }
      ],
      "stateMutability": "view",
      "type": "function"
    },
    {
      "inputs": [
        {
          "internalType": "address",
          "name": "",
          "type": "address"
        }
      ],
      "name": "agreements",
      "outputs": [
        {
          "internalType": "address",
          "name": "",
          "type": "address"
        }
      ],
      "stateMutability": "view",
      "type": "function"
    },
    {
      "inputs": [
        {
          "internalType": "address",
          "name": "borrower",
          "type": "address"
        },
        {
          "internalType": "uint256",
          "name": "amount",
          "type": "uint256"
        },
        {
          "internalType": "address",
          "name": "asset",
          "type": "address"
        }
      ],
      "name": "approveBorrower",
      "outputs": [],
      "stateMutability": "nonpayable",
      "type": "function"
    },
    {
      "inputs": [
        {
          "internalType": "address",
          "name": "asset",
          "type": "address"
        },
        {
          "internalType": "uint256",
          "name": "amount",
          "type": "uint256"
        },
        {
          "internalType": "bool",
          "name": "isPull",
          "type": "bool"
        }
      ],
      "name": "depositCollateral",
      "outputs": [],
      "stateMutability": "nonpayable",
      "type": "function"
    },
    {
      "inputs": [],
      "name": "getGreeting",
      "outputs": [
        {
          "internalType": "string",
          "name": "greet",
          "type": "string"
        }
      ],
      "stateMutability": "view",
      "type": "function"
    },
    {
      "inputs": [],
      "name": "greet",
      "outputs": [
        {
          "internalType": "string",
          "name": "",
          "type": "string"
        }
      ],
      "stateMutability": "view",
      "type": "function"
    },
    {
      "inputs": [],
      "name": "nftFactory",
      "outputs": [
        {
          "internalType": "contract NFTFactory",
          "name": "",
          "type": "address"
        }
      ],
      "stateMutability": "view",
      "type": "function"
    },
    {
      "inputs": [],
      "name": "owner",
      "outputs": [
        {
          "internalType": "address",
          "name": "",
          "type": "address"
        }
      ],
      "stateMutability": "view",
      "type": "function"
    },
    {
      "inputs": [
        {
          "internalType": "uint256",
          "name": "amount",
          "type": "uint256"
        },
        {
          "internalType": "address",
          "name": "asset",
          "type": "address"
        }
      ],
      "name": "repayBorrower",
      "outputs": [],
      "stateMutability": "nonpayable",
      "type": "function"
    },
    {
      "inputs": [
        {
          "internalType": "uint256",
          "name": "amount",
          "type": "uint256"
        },
        {
          "internalType": "address",
          "name": "asset",
          "type": "address"
        }
      ],
      "name": "repayBorrowerWithNFT",
      "outputs": [],
      "stateMutability": "nonpayable",
      "type": "function"
    },
    {
      "inputs": [
        {
          "internalType": "string",
          "name": "_greeting",
          "type": "string"
        }
      ],
      "name": "setGreeting",
      "outputs": [],
      "stateMutability": "nonpayable",
      "type": "function"
    },
    {
      "inputs": [
        {
          "internalType": "address",
          "name": "asset",
          "type": "address"
        }
      ],
      "name": "withdrawCollateral",
      "outputs": [],
      "stateMutability": "nonpayable",
      "type": "function"
    }
  ],
  "bytecode": "0x608060405234801561001057600080fd5b506040516116483803806116488339818101604052602081101561003357600080fd5b8101908080519060200190929190505050336000806101000a81548173ffffffffffffffffffffffffffffffffffffffff021916908373ffffffffffffffffffffffffffffffffffffffff16021790555080600260006101000a81548173ffffffffffffffffffffffffffffffffffffffff021916908373ffffffffffffffffffffffffffffffffffffffff16021790555050611573806100d56000396000f3fe608060405234801561001057600080fd5b50600436106100b45760003560e01c8063a413686211610071578063a4136862146102b3578063b73c74d91461036e578063cfae3217146103bc578063d63843cd1461043f578063e5feb78114610473578063fe50cc72146104cd576100b4565b80630bdc85d5146100b9578063102680e3146101275780633ce2aa99146101755780636fb3eee1146101e35780638da5cb5b1461023b578063928d300e1461026f575b600080fd5b610125600480360360608110156100cf57600080fd5b81019080803573ffffffffffffffffffffffffffffffffffffffff16906020019092919080359060200190929190803573ffffffffffffffffffffffffffffffffffffffff169060200190929190505050610550565b005b6101736004803603604081101561013d57600080fd5b8101908080359060200190929190803573ffffffffffffffffffffffffffffffffffffffff1690602001909291905050506106af565b005b6101b76004803603602081101561018b57600080fd5b81019080803573ffffffffffffffffffffffffffffffffffffffff169060200190929190505050610927565b604051808273ffffffffffffffffffffffffffffffffffffffff16815260200191505060405180910390f35b610225600480360360208110156101f957600080fd5b81019080803573ffffffffffffffffffffffffffffffffffffffff16906020019092919050505061095a565b6040518082815260200191505060405180910390f35b610243610972565b604051808273ffffffffffffffffffffffffffffffffffffffff16815260200191505060405180910390f35b6102b16004803603602081101561028557600080fd5b81019080803573ffffffffffffffffffffffffffffffffffffffff169060200190929190505050610996565b005b61036c600480360360208110156102c957600080fd5b81019080803590602001906401000000008111156102e657600080fd5b8201836020820111156102f857600080fd5b8035906020019184600183028401116401000000008311171561031a57600080fd5b91908080601f016020809104026020016040519081016040528093929190818152602001838380828437600081840152601f19601f820116905080830192505050505050509192919290505050610c10565b005b6103ba6004803603604081101561038457600080fd5b8101908080359060200190929190803573ffffffffffffffffffffffffffffffffffffffff169060200190929190505050610c2a565b005b6103c4610c9a565b6040518080602001828103825283818151815260200191508051906020019080838360005b838110156104045780820151818401526020810190506103e9565b50505050905090810190601f1680156104315780820380516001836020036101000a031916815260200191505b509250505060405180910390f35b610447610d38565b604051808273ffffffffffffffffffffffffffffffffffffffff16815260200191505060405180910390f35b6104cb6004803603606081101561048957600080fd5b81019080803573ffffffffffffffffffffffffffffffffffffffff16906020019092919080359060200190929190803515159060200190929190505050610d5e565b005b6104d5610f1f565b6040518080602001828103825283818151815260200191508051906020019080838360005b838110156105155780820151818401526020810190506104fa565b50505050905090810190601f1680156105425780820380516001836020036101000a031916815260200191505b509250505060405180910390f35b600073744c1aaa95232eef8a9994c4e0b3a89659d9ab7973ffffffffffffffffffffffffffffffffffffffff1663d2493b6c836040518263ffffffff1660e01b8152600401808273ffffffffffffffffffffffffffffffffffffffff16815260200191505060606040518083038186803b1580156105cd57600080fd5b505afa1580156105e1573d6000803e3d6000fd5b505050506040513d60608110156105f757600080fd5b81019080805190602001909291908051906020019092919080519060200190929190505050509150508073ffffffffffffffffffffffffffffffffffffffff1663c04a8a1085856040518363ffffffff1660e01b8152600401808373ffffffffffffffffffffffffffffffffffffffff16815260200182815260200192505050600060405180830381600087803b15801561069157600080fd5b505af11580156106a5573d6000803e3d6000fd5b5050505050505050565b8073ffffffffffffffffffffffffffffffffffffffff166323b872dd3330856040518463ffffffff1660e01b8152600401808473ffffffffffffffffffffffffffffffffffffffff1681526020018373ffffffffffffffffffffffffffffffffffffffff1681526020018281526020019350505050602060405180830381600087803b15801561073e57600080fd5b505af1158015610752573d6000803e3d6000fd5b505050506040513d602081101561076857600080fd5b8101908080519060200190929190505050508073ffffffffffffffffffffffffffffffffffffffff1663095ea7b3739fe532197ad76c5a68961439604c037eb79681f0846040518363ffffffff1660e01b8152600401808373ffffffffffffffffffffffffffffffffffffffff16815260200182815260200192505050602060405180830381600087803b1580156107ff57600080fd5b505af1158015610813573d6000803e3d6000fd5b505050506040513d602081101561082957600080fd5b810190808051906020019092919050505050739fe532197ad76c5a68961439604c037eb79681f073ffffffffffffffffffffffffffffffffffffffff1663573ade8182846001306040518563ffffffff1660e01b8152600401808573ffffffffffffffffffffffffffffffffffffffff1681526020018481526020018381526020018273ffffffffffffffffffffffffffffffffffffffff168152602001945050505050602060405180830381600087803b1580156108e757600080fd5b505af11580156108fb573d6000803e3d6000fd5b505050506040513d602081101561091157600080fd5b8101908080519060200190929190505050505050565b60036020528060005260406000206000915054906101000a900473ffffffffffffffffffffffffffffffffffffffff1681565b60046020528060005260406000206000915090505481565b60008054906101000a900473ffffffffffffffffffffffffffffffffffffffff1681565b600073744c1aaa95232eef8a9994c4e0b3a89659d9ab7973ffffffffffffffffffffffffffffffffffffffff1663d2493b6c836040518263ffffffff1660e01b8152600401808273ffffffffffffffffffffffffffffffffffffffff16815260200191505060606040518083038186803b158015610a1357600080fd5b505afa158015610a27573d6000803e3d6000fd5b505050506040513d6060811015610a3d57600080fd5b810190808051906020019092919080519060200190929190805190602001909291905050505050905060008173ffffffffffffffffffffffffffffffffffffffff166370a08231306040518263ffffffff1660e01b8152600401808273ffffffffffffffffffffffffffffffffffffffff16815260200191505060206040518083038186803b158015610acf57600080fd5b505afa158015610ae3573d6000803e3d6000fd5b505050506040513d6020811015610af957600080fd5b81019080805190602001909291905050509050739fe532197ad76c5a68961439604c037eb79681f073ffffffffffffffffffffffffffffffffffffffff166369328dec848360008054906101000a900473ffffffffffffffffffffffffffffffffffffffff166040518463ffffffff1660e01b8152600401808473ffffffffffffffffffffffffffffffffffffffff1681526020018381526020018273ffffffffffffffffffffffffffffffffffffffff1681526020019350505050602060405180830381600087803b158015610bcf57600080fd5b505af1158015610be3573d6000803e3d6000fd5b505050506040513d6020811015610bf957600080fd5b810190808051906020019092919050505050505050565b8060019080519060200190610c26929190611440565b5050565b610c573330848473ffffffffffffffffffffffffffffffffffffffff16610f24909392919063ffffffff16565b610c96739fe532197ad76c5a68961439604c037eb79681f0838373ffffffffffffffffffffffffffffffffffffffff16610fe59092919063ffffffff16565b5050565b60018054600181600116156101000203166002900480601f016020809104026020016040519081016040528092919081815260200182805460018160011615610100020316600290048015610d305780601f10610d0557610100808354040283529160200191610d30565b820191906000526020600020905b815481529060010190602001808311610d1357829003601f168201915b505050505081565b600260009054906101000a900473ffffffffffffffffffffffffffffffffffffffff1681565b8015610d9257610d913330848673ffffffffffffffffffffffffffffffffffffffff16610f24909392919063ffffffff16565b5b610dd1739fe532197ad76c5a68961439604c037eb79681f0838573ffffffffffffffffffffffffffffffffffffffff16610fe59092919063ffffffff16565b81600460003373ffffffffffffffffffffffffffffffffffffffff1673ffffffffffffffffffffffffffffffffffffffff1681526020019081526020016000205401600460003373ffffffffffffffffffffffffffffffffffffffff1673ffffffffffffffffffffffffffffffffffffffff16815260200190815260200160002081905550739fe532197ad76c5a68961439604c037eb79681f073ffffffffffffffffffffffffffffffffffffffff1663e8eda9df84843060006040518563ffffffff1660e01b8152600401808573ffffffffffffffffffffffffffffffffffffffff1681526020018481526020018373ffffffffffffffffffffffffffffffffffffffff168152602001828152602001945050505050600060405180830381600087803b158015610f0257600080fd5b505af1158015610f16573d6000803e3d6000fd5b50505050505050565b606090565b610fdf846323b872dd60e01b858585604051602401808473ffffffffffffffffffffffffffffffffffffffff1681526020018373ffffffffffffffffffffffffffffffffffffffff1681526020018281526020019350505050604051602081830303815290604052907bffffffffffffffffffffffffffffffffffffffffffffffffffffffff19166020820180517bffffffffffffffffffffffffffffffffffffffffffffffffffffffff83818316178352505050506111aa565b50505050565b60008114806110b3575060008373ffffffffffffffffffffffffffffffffffffffff1663dd62ed3e30856040518363ffffffff1660e01b8152600401808373ffffffffffffffffffffffffffffffffffffffff1681526020018273ffffffffffffffffffffffffffffffffffffffff1681526020019250505060206040518083038186803b15801561107657600080fd5b505afa15801561108a573d6000803e3d6000fd5b505050506040513d60208110156110a057600080fd5b8101908080519060200190929190505050145b611108576040517f08c379a00000000000000000000000000000000000000000000000000000000081526004018080602001828103825260368152602001806115086036913960400191505060405180910390fd5b6111a58363095ea7b360e01b8484604051602401808373ffffffffffffffffffffffffffffffffffffffff16815260200182815260200192505050604051602081830303815290604052907bffffffffffffffffffffffffffffffffffffffffffffffffffffffff19166020820180517bffffffffffffffffffffffffffffffffffffffffffffffffffffffff83818316178352505050506111aa565b505050565b6111c98273ffffffffffffffffffffffffffffffffffffffff166113f5565b61123b576040517f08c379a000000000000000000000000000000000000000000000000000000000815260040180806020018281038252601f8152602001807f5361666545524332303a2063616c6c20746f206e6f6e2d636f6e74726163740081525060200191505060405180910390fd5b600060608373ffffffffffffffffffffffffffffffffffffffff16836040518082805190602001908083835b6020831061128a5780518252602082019150602081019050602083039250611267565b6001836020036101000a0380198251168184511680821785525050505050509050019150506000604051808303816000865af19150503d80600081146112ec576040519150601f19603f3d011682016040523d82523d6000602084013e6112f1565b606091505b509150915081611369576040517f08c379a00000000000000000000000000000000000000000000000000000000081526004018080602001828103825260208152602001807f5361666545524332303a206c6f772d6c6576656c2063616c6c206661696c656481525060200191505060405180910390fd5b6000815111156113ef5780806020019051602081101561138857600080fd5b81019080805190602001909291905050506113ee576040517f08c379a000000000000000000000000000000000000000000000000000000000815260040180806020018281038252602a8152602001806114de602a913960400191505060405180910390fd5b5b50505050565b60008060007fc5d2460186f7233c927e7db2dcc703c0e500b653ca82273b7bfad8045d85a47060001b9050833f915080821415801561143757506000801b8214155b92505050919050565b828054600181600116156101000203166002900490600052602060002090601f016020900481019282601f1061148157805160ff19168380011785556114af565b828001600101855582156114af579182015b828111156114ae578251825591602001919060010190611493565b5b5090506114bc91906114c0565b5090565b5b808211156114d95760008160009055506001016114c1565b509056fe5361666545524332303a204552433230206f7065726174696f6e20646964206e6f7420737563636565645361666545524332303a20617070726f76652066726f6d206e6f6e2d7a65726f20746f206e6f6e2d7a65726f20616c6c6f77616e6365a2646970667358221220d2e5cebcce58257f3d02b07cb077590b46b0e331db0d28d6386d04d27901226c64736f6c63430007030033",
  "linkReferences": {},
  "deployedLinkReferences": {}
}