{
  "_format": "hh-sol-artifact-1",
  "contractName": "OracleClient",
  "sourceName": "contracts/OracleClient.sol",
  "abi": [
    {
      "inputs": [],
      "stateMutability": "nonpayable",
      "type": "constructor"
    },
    {
      "inputs": [],
      "name": "getMultiplierEstimate",
      "outputs": [
        {
          "internalType": "uint256",
          "name": "",
          "type": "uint256"
        }
      ],
      "stateMutability": "view",
      "type": "function"
    }
  ],
  "bytecode": "0x6080604052348015600f57600080fd5b5060888061001e6000396000f3fe6080604052348015600f57600080fd5b506004361060285760003560e01c80635f2a367714602d575b600080fd5b60336049565b6040518082815260200191505060405180910390f35b6000602a90509056fea2646970667358221220c7ce1cc7e7def67212f4370a4cbb62a1378b55eee4e3a9e118e84f8d82294dfc64736f6c63430007030033",
  "linkReferences": {},
  "deployedLinkReferences": {}
}