{
  "_format": "hh-sol-artifact-1",
  "contractName": "OracleClient",
  "sourceName": "contracts/OracleClient.sol",
  "abi": [
    {
      "inputs": [],
      "stateMutability": "nonpayable",
      "type": "constructor"
    },
    {
      "anonymous": false,
      "inputs": [
        {
          "indexed": true,
          "internalType": "bytes32",
          "name": "id",
          "type": "bytes32"
        }
      ],
      "name": "ChainlinkCancelled",
      "type": "event"
    },
    {
      "anonymous": false,
      "inputs": [
        {
          "indexed": true,
          "internalType": "bytes32",
          "name": "id",
          "type": "bytes32"
        }
      ],
      "name": "ChainlinkFulfilled",
      "type": "event"
    },
    {
      "anonymous": false,
      "inputs": [
        {
          "indexed": true,
          "internalType": "bytes32",
          "name": "id",
          "type": "bytes32"
        }
      ],
      "name": "ChainlinkRequested",
      "type": "event"
    },
    {
      "anonymous": false,
      "inputs": [
        {
          "indexed": false,
          "internalType": "string",
          "name": "_asset",
          "type": "string"
        },
        {
          "indexed": false,
          "internalType": "uint256",
          "name": "_mul",
          "type": "uint256"
        }
      ],
      "name": "MultiplierUpdated",
      "type": "event"
    },
    {
      "inputs": [
        {
          "internalType": "bytes32",
          "name": "_requestId",
          "type": "bytes32"
        },
        {
          "internalType": "uint256",
          "name": "_payment",
          "type": "uint256"
        },
        {
          "internalType": "bytes4",
          "name": "_callbackFunctionId",
          "type": "bytes4"
        },
        {
          "internalType": "uint256",
          "name": "_expiration",
          "type": "uint256"
        }
      ],
      "name": "cancelRequest",
      "outputs": [],
      "stateMutability": "nonpayable",
      "type": "function"
    },
    {
      "inputs": [],
      "name": "currentPrice",
      "outputs": [
        {
          "internalType": "uint256",
          "name": "",
          "type": "uint256"
        }
      ],
      "stateMutability": "view",
      "type": "function"
    },
    {
      "inputs": [
        {
          "internalType": "bytes32",
          "name": "_requestId",
          "type": "bytes32"
        },
        {
          "internalType": "uint256",
          "name": "_multiplier",
          "type": "uint256"
        }
      ],
      "name": "fulfillCallback",
      "outputs": [],
      "stateMutability": "nonpayable",
      "type": "function"
    },
    {
      "inputs": [],
      "name": "getChainlinkToken",
      "outputs": [
        {
          "internalType": "address",
          "name": "",
          "type": "address"
        }
      ],
      "stateMutability": "view",
      "type": "function"
    },
    {
      "inputs": [
        {
          "internalType": "string",
          "name": "_dataHash",
          "type": "string"
        }
      ],
      "name": "getMultiplier",
      "outputs": [
        {
          "internalType": "uint256",
          "name": "",
          "type": "uint256"
        }
      ],
      "stateMutability": "view",
      "type": "function"
    },
    {
      "inputs": [
        {
          "internalType": "bytes32",
          "name": "",
          "type": "bytes32"
        }
      ],
      "name": "multipliers",
      "outputs": [
        {
          "internalType": "uint256",
          "name": "",
          "type": "uint256"
        }
      ],
      "stateMutability": "view",
      "type": "function"
    },
    {
      "inputs": [
        {
          "internalType": "bytes32",
          "name": "",
          "type": "bytes32"
        }
      ],
      "name": "receipts",
      "outputs": [
        {
          "internalType": "string",
          "name": "",
          "type": "string"
        }
      ],
      "stateMutability": "view",
      "type": "function"
    },
    {
      "inputs": [
        {
          "internalType": "string",
          "name": "_dataHash",
          "type": "string"
        },
        {
          "internalType": "uint256",
          "name": "_window",
          "type": "uint256"
        }
      ],
      "name": "requestMultiplierPrice",
      "outputs": [
        {
          "internalType": "bytes32",
          "name": "",
          "type": "bytes32"
        }
      ],
      "stateMutability": "nonpayable",
      "type": "function"
    },
    {
      "inputs": [
        {
          "internalType": "string",
          "name": "",
          "type": "string"
        }
      ],
      "name": "tokenToMultiplier",
      "outputs": [
        {
          "internalType": "uint256",
          "name": "",
          "type": "uint256"
        }
      ],
      "stateMutability": "view",
      "type": "function"
    },
    {
      "inputs": [],
      "name": "withdrawLink",
      "outputs": [],
      "stateMutability": "nonpayable",
      "type": "function"
    }
  ],
  "bytecode": "0x6080604052600160045567016345785d8a00006006553480156200002257600080fd5b5062000033620000b560201b60201c565b732f90a6d021db21e1b2a077c5a37b3c7e75d15b7e600760006101000a81548173ffffffffffffffffffffffffffffffffffffffff021916908373ffffffffffffffffffffffffffffffffffffffff1602179055507f3239666139616131336266313436383738386237636334613530306134356238600881905550620001a3565b6200015d73c89bd4e1632d3a43cb03aaad5262cbe4038bc57173ffffffffffffffffffffffffffffffffffffffff166338cc48316040518163ffffffff1660e01b815260040160206040518083038186803b1580156200011457600080fd5b505afa15801562000129573d6000803e3d6000fd5b505050506040513d60208110156200014057600080fd5b81019080805190602001909291905050506200015f60201b60201c565b565b80600260006101000a81548173ffffffffffffffffffffffffffffffffffffffff021916908373ffffffffffffffffffffffffffffffffffffffff16021790555050565b611e8080620001b36000396000f3fe608060405234801561001057600080fd5b506004361061009e5760003560e01c80639be46d1c116100665780639be46d1c1461024a5780639d1b464a14610319578063c41abefa14610337578063ec65d0f814610406578063ef6cf04d146104715761009e565b8063165d35e1146100a35780634b511545146100ed578063505c01151461012f5780638dc654a2146101675780639557081714610171575b600080fd5b6100ab610518565b604051808273ffffffffffffffffffffffffffffffffffffffff1673ffffffffffffffffffffffffffffffffffffffff16815260200191505060405180910390f35b6101196004803603602081101561010357600080fd5b8101908080359060200190929190505050610527565b6040518082815260200191505060405180910390f35b6101656004803603604081101561014557600080fd5b81019080803590602001909291908035906020019092919050505061053f565b005b61016f6107d9565b005b6102346004803603604081101561018757600080fd5b81019080803590602001906401000000008111156101a457600080fd5b8201836020820111156101b657600080fd5b803590602001918460018302840111640100000000831117156101d857600080fd5b91908080601f016020809104026020016040519081016040528093929190818152602001838380828437600081840152601f19601f820116905080830192505050505050509192919290803590602001909291905050506109d3565b6040518082815260200191505060405180910390f35b6103036004803603602081101561026057600080fd5b810190808035906020019064010000000081111561027d57600080fd5b82018360208201111561028f57600080fd5b803590602001918460018302840111640100000000831117156102b157600080fd5b91908080601f016020809104026020016040519081016040528093929190818152602001838380828437600081840152601f19601f820116905080830192505050505050509192919290505050610d36565b6040518082815260200191505060405180910390f35b610321610d64565b6040518082815260200191505060405180910390f35b6103f06004803603602081101561034d57600080fd5b810190808035906020019064010000000081111561036a57600080fd5b82018360208201111561037c57600080fd5b8035906020019184600183028401116401000000008311171561039e57600080fd5b91908080601f016020809104026020016040519081016040528093929190818152602001838380828437600081840152601f19601f820116905080830192505050505050509192919290505050610d6a565b6040518082815260200191505060405180910390f35b61046f6004803603608081101561041c57600080fd5b81019080803590602001909291908035906020019092919080357bffffffffffffffffffffffffffffffffffffffffffffffffffffffff1916906020019092919080359060200190929190505050610ddd565b005b61049d6004803603602081101561048757600080fd5b8101908080359060200190929190505050610def565b6040518080602001828103825283818151815260200191508051906020019080838360005b838110156104dd5780820151818401526020810190506104c2565b50505050905090810190601f16801561050a5780820380516001836020036101000a031916815260200191505b509250505060405180910390f35b6000610522610e9f565b905090565b600a6020528060005260406000206000915090505481565b816005600082815260200190815260200160002060009054906101000a900473ffffffffffffffffffffffffffffffffffffffff1673ffffffffffffffffffffffffffffffffffffffff163373ffffffffffffffffffffffffffffffffffffffff16146105f7576040517f08c379a0000000000000000000000000000000000000000000000000000000008152600401808060200182810382526028815260200180611e236028913960400191505060405180910390fd5b6005600082815260200190815260200160002060006101000a81549073ffffffffffffffffffffffffffffffffffffffff0219169055807f7cc135e0cebb02c3480ae5d74d377283180a2601f8f644edf7987b009316c63a60405160405180910390a27f2fa2aca3977517d5239c8350cf8ab777d49625eebcb3e44b3636f78c0bd2299c600c600085815260200190815260200160002083604051808060200183815260200182810382528481815460018160011615610100020316600290048152602001915080546001816001161561010002031660029004801561071e5780601f106106f35761010080835404028352916020019161071e565b820191906000526020600020905b81548152906001019060200180831161070157829003601f168201915b5050935050505060405180910390a181600b600c6000868152602001908152602001600020604051808280546001816001161561010002031660029004801561079e5780601f1061077c57610100808354040283529182019161079e565b820191906000526020600020905b81548152906001019060200180831161078a575b5050915050908152602001604051809103902081905550600c600084815260200190815260200160002060006107d49190611c71565b505050565b60006107e3610e9f565b90508073ffffffffffffffffffffffffffffffffffffffff1663a9059cbb338373ffffffffffffffffffffffffffffffffffffffff166370a08231306040518263ffffffff1660e01b8152600401808273ffffffffffffffffffffffffffffffffffffffff1673ffffffffffffffffffffffffffffffffffffffff16815260200191505060206040518083038186803b15801561087f57600080fd5b505afa158015610893573d6000803e3d6000fd5b505050506040513d60208110156108a957600080fd5b81019080805190602001909291905050506040518363ffffffff1660e01b8152600401808373ffffffffffffffffffffffffffffffffffffffff1673ffffffffffffffffffffffffffffffffffffffff16815260200182815260200192505050602060405180830381600087803b15801561092357600080fd5b505af1158015610937573d6000803e3d6000fd5b505050506040513d602081101561094d57600080fd5b81019080805190602001909291905050506109d0576040517f08c379a00000000000000000000000000000000000000000000000000000000081526004018080602001828103825260128152602001807f556e61626c6520746f207472616e73666572000000000000000000000000000081525060200191505060405180910390fd5b50565b60006109dd611cb9565b6109f16008543063505c011560e01b610ec9565b9050610a726040518060400160405280600381526020017f67657400000000000000000000000000000000000000000000000000000000008152506040518060400160405280601a81526020017f687474703a2f2f6d61726b65746d616b652e6e67726f6b2e696f00000000000081525083610efa9092919063ffffffff16565b606084610a7e85610f2d565b60405160200180807f6b65793d0000000000000000000000000000000000000000000000000000000081525060040183805190602001908083835b60208310610adc5780518252602082019150602081019050602083039250610ab9565b6001836020036101000a038019825116818451168082178552505050505050905001807f2600000000000000000000000000000000000000000000000000000000000000815250600101807f77696e646f773d0000000000000000000000000000000000000000000000000081525060070182805190602001908083835b60208310610b7d5780518252602082019150602081019050602083039250610b5a565b6001836020036101000a038019825116818451168082178552505050505050905001925050506040516020818303038152906040529050610bfe6040518060400160405280600b81526020017f7175657279506172616d730000000000000000000000000000000000000000008152508284610efa9092919063ffffffff16565b610c7d6040518060400160405280600481526020017f70617468000000000000000000000000000000000000000000000000000000008152506040518060400160405280600881526020017f646174612e6d756c00000000000000000000000000000000000000000000000081525084610efa9092919063ffffffff16565b610ccf6040518060400160405280600581526020017f74696d6573000000000000000000000000000000000000000000000000000000815250670de0b6b3a76400008461105a9092919063ffffffff16565b6000610d00600760009054906101000a900473ffffffffffffffffffffffffffffffffffffffff168460065461108d565b905085600c60008381526020019081526020016000209080519060200190610d29929190611d26565b5080935050505092915050565b600b818051602081018201805184825260208301602085012081835280955050505050506000915090505481565b60095481565b6000600b826040518082805190602001908083835b60208310610da25780518252602082019150602081019050602083039250610d7f565b6001836020036101000a0380198251168184511680821785525050505050509050019150509081526020016040518091039020549050919050565b610de984848484611345565b50505050565b600c6020528060005260406000206000915090508054600181600116156101000203166002900480601f016020809104026020016040519081016040528092919081815260200182805460018160011615610100020316600290048015610e975780601f10610e6c57610100808354040283529160200191610e97565b820191906000526020600020905b815481529060010190602001808311610e7a57829003601f168201915b505050505081565b6000600260009054906101000a900473ffffffffffffffffffffffffffffffffffffffff16905090565b610ed1611cb9565b610ed9611cb9565b610ef0858585846114a8909392919063ffffffff16565b9150509392505050565b610f1182846080015161155890919063ffffffff16565b610f2881846080015161155890919063ffffffff16565b505050565b60606000821415610f75576040518060400160405280600181526020017f30000000000000000000000000000000000000000000000000000000000000008152509050611055565b600082905060005b60008214610f9f578080600101915050600a8281610f9757fe5b049150610f7d565b6060816040519080825280601f01601f191660200182016040528015610fd45781602001600182028038833980820191505090505b50905060008290508593505b6000841461104d57600a8481610ff257fe5b0660300160f81b8282600190039250828151811061100c57fe5b60200101907effffffffffffffffffffffffffffffffffffffffffffffffffffffffffffff1916908160001a905350600a848161104557fe5b049350610fe0565b819450505050505b919050565b61107182846080015161155890919063ffffffff16565b61108881846080015161157d90919063ffffffff16565b505050565b600030600454604051602001808373ffffffffffffffffffffffffffffffffffffffff1673ffffffffffffffffffffffffffffffffffffffff1660601b815260140182815260200192505050604051602081830303815290604052805190602001209050600454836060018181525050836005600083815260200190815260200160002060006101000a81548173ffffffffffffffffffffffffffffffffffffffff021916908373ffffffffffffffffffffffffffffffffffffffff160217905550807fb5e6e01e79f91267dc17b4e6314d5d4d03593d2ceee0fbb452b750bd70ea5af960405160405180910390a2600260009054906101000a900473ffffffffffffffffffffffffffffffffffffffff1673ffffffffffffffffffffffffffffffffffffffff16634000aea085846111c587611621565b6040518463ffffffff1660e01b8152600401808473ffffffffffffffffffffffffffffffffffffffff1673ffffffffffffffffffffffffffffffffffffffff16815260200183815260200180602001828103825283818151815260200191508051906020019080838360005b8381101561124c578082015181840152602081019050611231565b50505050905090810190601f1680156112795780820380516001836020036101000a031916815260200191505b50945050505050602060405180830381600087803b15801561129a57600080fd5b505af11580156112ae573d6000803e3d6000fd5b505050506040513d60208110156112c457600080fd5b810190808051906020019092919050505061132a576040517f08c379a0000000000000000000000000000000000000000000000000000000008152600401808060200182810382526023815260200180611e006023913960400191505060405180910390fd5b60016004600082825401925050819055508090509392505050565b60006005600086815260200190815260200160002060009054906101000a900473ffffffffffffffffffffffffffffffffffffffff1690506005600086815260200190815260200160002060006101000a81549073ffffffffffffffffffffffffffffffffffffffff0219169055847fe1fe3afa0f7f761ff0a8b89086790efd5140d2907ebd5b7ff6bfcb5e075fd4c560405160405180910390a28073ffffffffffffffffffffffffffffffffffffffff16636ee4d553868686866040518563ffffffff1660e01b815260040180858152602001848152602001837bffffffffffffffffffffffffffffffffffffffffffffffffffffffff19167bffffffffffffffffffffffffffffffffffffffffffffffffffffffff19168152602001828152602001945050505050600060405180830381600087803b15801561148957600080fd5b505af115801561149d573d6000803e3d6000fd5b505050505050505050565b6114b0611cb9565b6114c085608001516101006117ed565b508385600001818152505082856020019073ffffffffffffffffffffffffffffffffffffffff16908173ffffffffffffffffffffffffffffffffffffffff16815250508185604001907bffffffffffffffffffffffffffffffffffffffffffffffffffffffff191690817bffffffffffffffffffffffffffffffffffffffffffffffffffffffff191681525050849050949350505050565b6115658260038351611841565b611578818361198690919063ffffffff16565b505050565b7fffffffffffffffffffffffffffffffffffffffffffffffff00000000000000008112156115b4576115af82826119a8565b61161d565b67ffffffffffffffff8113156115d3576115ce8282611a16565b61161c565b600081126115ec576115e782600083611841565b61161b565b61161a826001837fffffffffffffffffffffffffffffffffffffffffffffffffffffffffffffffff03611841565b5b5b5b5050565b6060634042994660e01b60008084600001518560200151866040015187606001516001896080015160000151604051602401808973ffffffffffffffffffffffffffffffffffffffff1673ffffffffffffffffffffffffffffffffffffffff1681526020018881526020018781526020018673ffffffffffffffffffffffffffffffffffffffff1673ffffffffffffffffffffffffffffffffffffffff168152602001857bffffffffffffffffffffffffffffffffffffffffffffffffffffffff19167bffffffffffffffffffffffffffffffffffffffffffffffffffffffff1916815260200184815260200183815260200180602001828103825283818151815260200191508051906020019080838360005b83811015611750578082015181840152602081019050611735565b50505050905090810190601f16801561177d5780820380516001836020036101000a031916815260200191505b509950505050505050505050604051602081830303815290604052907bffffffffffffffffffffffffffffffffffffffffffffffffffffffff19166020820180517bffffffffffffffffffffffffffffffffffffffffffffffffffffffff83818316178352505050509050919050565b6117f5611da6565b60006020838161180157fe5b061461181a576020828161181157fe5b06602003820191505b81836020018181525050604051808452600081528281016020016040525082905092915050565b6017811161186e576118688160058460ff16901b60ff161784611a6290919063ffffffff16565b50611981565b60ff81116118b057611893601860058460ff16901b1784611a6290919063ffffffff16565b506118aa81600185611a829092919063ffffffff16565b50611980565b61ffff81116118f3576118d6601960058460ff16901b1784611a6290919063ffffffff16565b506118ed81600285611a829092919063ffffffff16565b5061197f565b63ffffffff81116119385761191b601a60058460ff16901b1784611a6290919063ffffffff16565b5061193281600485611a829092919063ffffffff16565b5061197e565b67ffffffffffffffff811161197d57611964601b60058460ff16901b1784611a6290919063ffffffff16565b5061197b81600885611a829092919063ffffffff16565b505b5b5b5b5b505050565b61198e611da6565b6119a083846000015151848551611aa4565b905092915050565b6119c660036005600660ff16901b1783611a6290919063ffffffff16565b50611a1282827fffffffffffffffffffffffffffffffffffffffffffffffffffffffffffffffff0360405160200180828152602001915050604051602081830303815290604052611b5d565b5050565b611a3460026005600660ff16901b1783611a6290919063ffffffff16565b50611a5e828260405160200180828152602001915050604051602081830303815290604052611b5d565b5050565b611a6a611da6565b611a7a8384600001515184611b82565b905092915050565b611a8a611da6565b611a9b848560000151518585611bd0565b90509392505050565b611aac611da6565b8251821115611aba57600080fd5b84602001518285011115611ae557611ae4856002611ade8860200151888701611c31565b02611c4d565b5b600080865180518760208301019350808887011115611b045787860182525b60208701925050505b60208410611b305780518252602082019150602081019050602084039350611b0d565b60006001856020036101000a03905080198251168184511681811785525050879350505050949350505050565b611b6a8260028351611841565b611b7d818361198690919063ffffffff16565b505050565b611b8a611da6565b83602001518310611ba757611ba6846002866020015102611c4d565b5b8351805160208583010184815381861415611bc3576001820183525b5050508390509392505050565b611bd8611da6565b84602001518483011115611bf657611bf585600286850102611c4d565b5b60006001836101000a0390508551838682010185831982511617815281518588011115611c235784870182525b505085915050949350505050565b600081831115611c4357829050611c47565b8190505b92915050565b606082600001519050611c6083836117ed565b50611c6b8382611986565b50505050565b50805460018160011615610100020316600290046000825580601f10611c975750611cb6565b601f016020900490600052602060002090810190611cb59190611dc0565b5b50565b6040518060a0016040528060008019168152602001600073ffffffffffffffffffffffffffffffffffffffff16815260200160007bffffffffffffffffffffffffffffffffffffffffffffffffffffffff1916815260200160008152602001611d20611de5565b81525090565b828054600181600116156101000203166002900490600052602060002090601f016020900481019282601f10611d6757805160ff1916838001178555611d95565b82800160010185558215611d95579182015b82811115611d94578251825591602001919060010190611d79565b5b509050611da29190611dc0565b5090565b604051806040016040528060608152602001600081525090565b611de291905b80821115611dde576000816000905550600101611dc6565b5090565b90565b60405180604001604052806060815260200160008152509056fe756e61626c6520746f207472616e73666572416e6443616c6c20746f206f7261636c65536f75726365206d75737420626520746865206f7261636c65206f66207468652072657175657374a264697066735822122018f578dc33ca942d268bcd1e3372174439ccf75898da6ab2283c8528b5259c5164736f6c63430006020033",
  "linkReferences": {},
  "deployedLinkReferences": {}
}